{
  "_format": "hh-sol-artifact-1",
  "contractName": "Fundraising",
  "sourceName": "contracts/Fundraising.sol",
  "abi": [
    {
      "inputs": [
        {
          "internalType": "address",
          "name": "initialOwner",
          "type": "address"
        }
      ],
      "stateMutability": "nonpayable",
      "type": "constructor"
    },
    {
      "inputs": [
        {
          "internalType": "address",
          "name": "owner",
          "type": "address"
        }
      ],
      "name": "OwnableInvalidOwner",
      "type": "error"
    },
    {
      "inputs": [
        {
          "internalType": "address",
          "name": "account",
          "type": "address"
        }
      ],
      "name": "OwnableUnauthorizedAccount",
      "type": "error"
    },
    {
      "inputs": [],
      "name": "ReentrancyGuardReentrantCall",
      "type": "error"
    },
    {
      "anonymous": false,
      "inputs": [
        {
          "indexed": true,
          "internalType": "address",
          "name": "donor",
          "type": "address"
        },
        {
          "indexed": false,
          "internalType": "uint256",
          "name": "amount",
          "type": "uint256"
        },
        {
          "indexed": false,
          "internalType": "uint256",
          "name": "timestamp",
          "type": "uint256"
        }
      ],
      "name": "DonationReceived",
      "type": "event"
    },
    {
      "anonymous": false,
      "inputs": [
        {
          "indexed": true,
          "internalType": "address",
          "name": "to",
          "type": "address"
        },
        {
          "indexed": false,
          "internalType": "uint256",
          "name": "amount",
          "type": "uint256"
        },
        {
          "indexed": false,
          "internalType": "uint256",
          "name": "timestamp",
          "type": "uint256"
        }
      ],
      "name": "FundsWithdrawn",
      "type": "event"
    },
    {
      "anonymous": false,
      "inputs": [
        {
          "indexed": true,
          "internalType": "address",
          "name": "previousOwner",
          "type": "address"
        },
        {
          "indexed": true,
          "internalType": "address",
          "name": "newOwner",
          "type": "address"
        }
      ],
      "name": "OwnershipTransferred",
      "type": "event"
    },
    {
      "stateMutability": "payable",
      "type": "fallback"
    },
    {
      "inputs": [],
      "name": "donate",
      "outputs": [],
      "stateMutability": "payable",
      "type": "function"
    },
    {
      "inputs": [],
      "name": "getDonorList",
      "outputs": [
        {
          "internalType": "address[]",
          "name": "",
          "type": "address[]"
        }
      ],
      "stateMutability": "view",
      "type": "function"
    },
    {
      "inputs": [],
      "name": "getTotalFunds",
      "outputs": [
        {
          "internalType": "uint256",
          "name": "",
          "type": "uint256"
        }
      ],
      "stateMutability": "view",
      "type": "function"
    },
    {
      "inputs": [],
      "name": "owner",
      "outputs": [
        {
          "internalType": "address",
          "name": "",
          "type": "address"
        }
      ],
      "stateMutability": "view",
      "type": "function"
    },
    {
      "inputs": [],
      "name": "renounceOwnership",
      "outputs": [],
      "stateMutability": "nonpayable",
      "type": "function"
    },
    {
      "inputs": [
        {
          "internalType": "address",
          "name": "",
          "type": "address"
        }
      ],
      "name": "totalDonated",
      "outputs": [
        {
          "internalType": "uint256",
          "name": "",
          "type": "uint256"
        }
      ],
      "stateMutability": "view",
      "type": "function"
    },
    {
      "inputs": [
        {
          "internalType": "address",
          "name": "newOwner",
          "type": "address"
        }
      ],
      "name": "transferOwnership",
      "outputs": [],
      "stateMutability": "nonpayable",
      "type": "function"
    },
    {
      "inputs": [
        {
          "internalType": "address payable",
          "name": "to",
          "type": "address"
        }
      ],
      "name": "withdrawFunds",
      "outputs": [],
      "stateMutability": "nonpayable",
      "type": "function"
    },
    {
      "stateMutability": "payable",
      "type": "receive"
    }
  ],
  "bytecode": "0x60806040523480156200001157600080fd5b5060405162001112380380620011128339818101604052810190620000379190620001fb565b80600073ffffffffffffffffffffffffffffffffffffffff168173ffffffffffffffffffffffffffffffffffffffff1603620000ad5760006040517f1e4fbdf7000000000000000000000000000000000000000000000000000000008152600401620000a491906200023e565b60405180910390fd5b620000be81620000cd60201b60201c565b5060018081905550506200025b565b60008060009054906101000a900473ffffffffffffffffffffffffffffffffffffffff169050816000806101000a81548173ffffffffffffffffffffffffffffffffffffffff021916908373ffffffffffffffffffffffffffffffffffffffff1602179055508173ffffffffffffffffffffffffffffffffffffffff168173ffffffffffffffffffffffffffffffffffffffff167f8be0079c531659141344cd1fd0a4f28419497f9722a3daafe3b4186f6b6457e060405160405180910390a35050565b600080fd5b600073ffffffffffffffffffffffffffffffffffffffff82169050919050565b6000620001c38262000196565b9050919050565b620001d581620001b6565b8114620001e157600080fd5b50565b600081519050620001f581620001ca565b92915050565b60006020828403121562000214576200021362000191565b5b60006200022484828501620001e4565b91505092915050565b6200023881620001b6565b82525050565b60006020820190506200025560008301846200022d565b92915050565b610ea7806200026b6000396000f3fe60806040526004361061007f5760003560e01c80638da5cb5b1161004e5780638da5cb5b146101a2578063eb8bbd28146101cd578063ed88c68e146101f8578063f2fde38b14610202576100bf565b80630f3a1d47146100fa57806348cfc7791461013757806368742da614610162578063715018a61461018b576100bf565b366100bf576040517f08c379a00000000000000000000000000000000000000000000000000000000081526004016100b690610996565b60405180910390fd5b6040517f08c379a00000000000000000000000000000000000000000000000000000000081526004016100f190610996565b60405180910390fd5b34801561010657600080fd5b50610121600480360381019061011c9190610a19565b61022b565b60405161012e9190610a5f565b60405180910390f35b34801561014357600080fd5b5061014c610243565b6040516101599190610b38565b60405180910390f35b34801561016e57600080fd5b5061018960048036038101906101849190610b98565b6102d1565b005b34801561019757600080fd5b506101a06104a9565b005b3480156101ae57600080fd5b506101b76104bd565b6040516101c49190610bd4565b60405180910390f35b3480156101d957600080fd5b506101e26104e6565b6040516101ef9190610a5f565b60405180910390f35b6102006104f0565b005b34801561020e57600080fd5b5061022960048036038101906102249190610a19565b610711565b005b60046020528060005260406000206000915090505481565b606060038054806020026020016040519081016040528092919081815260200182805480156102c757602002820191906000526020600020905b8160009054906101000a900473ffffffffffffffffffffffffffffffffffffffff1673ffffffffffffffffffffffffffffffffffffffff168152602001906001019080831161027d575b5050505050905090565b6102d9610797565b6102e161081e565b600073ffffffffffffffffffffffffffffffffffffffff168173ffffffffffffffffffffffffffffffffffffffff1603610350576040517f08c379a000000000000000000000000000000000000000000000000000000000815260040161034790610c3b565b60405180910390fd5b600047905060008111610398576040517f08c379a000000000000000000000000000000000000000000000000000000000815260040161038f90610ca7565b60405180910390fd5b600060028190555060008273ffffffffffffffffffffffffffffffffffffffff16826040516103c690610cf8565b60006040518083038185875af1925050503d8060008114610403576040519150601f19603f3d011682016040523d82523d6000602084013e610408565b606091505b505090508061044c576040517f08c379a000000000000000000000000000000000000000000000000000000000815260040161044390610d59565b60405180910390fd5b8273ffffffffffffffffffffffffffffffffffffffff167ffbc3a599b784fe88772fc5abcc07223f64ca0b13acc341f4fb1e46bef0510eb48342604051610494929190610d79565b60405180910390a250506104a6610864565b50565b6104b1610797565b6104bb600061086d565b565b60008060009054906101000a900473ffffffffffffffffffffffffffffffffffffffff16905090565b6000600254905090565b6104f861081e565b6000341161053b576040517f08c379a000000000000000000000000000000000000000000000000000000000815260040161053290610dee565b60405180910390fd5b346002600082825461054d9190610e3d565b92505081905550600560003373ffffffffffffffffffffffffffffffffffffffff1673ffffffffffffffffffffffffffffffffffffffff16815260200190815260200160002060009054906101000a900460ff16610661576001600560003373ffffffffffffffffffffffffffffffffffffffff1673ffffffffffffffffffffffffffffffffffffffff16815260200190815260200160002060006101000a81548160ff0219169083151502179055506003339080600181540180825580915050600190039060005260206000200160009091909190916101000a81548173ffffffffffffffffffffffffffffffffffffffff021916908373ffffffffffffffffffffffffffffffffffffffff1602179055505b34600460003373ffffffffffffffffffffffffffffffffffffffff1673ffffffffffffffffffffffffffffffffffffffff16815260200190815260200160002060008282546106b09190610e3d565b925050819055503373ffffffffffffffffffffffffffffffffffffffff167f4b0304ab2f313234b1cea012339c8f8c3bf2c8bb357d81a579cfdb35d2e3d03034426040516106ff929190610d79565b60405180910390a261070f610864565b565b610719610797565b600073ffffffffffffffffffffffffffffffffffffffff168173ffffffffffffffffffffffffffffffffffffffff160361078b5760006040517f1e4fbdf70000000000000000000000000000000000000000000000000000000081526004016107829190610bd4565b60405180910390fd5b6107948161086d565b50565b61079f610931565b73ffffffffffffffffffffffffffffffffffffffff166107bd6104bd565b73ffffffffffffffffffffffffffffffffffffffff161461081c576107e0610931565b6040517f118cdaa70000000000000000000000000000000000000000000000000000000081526004016108139190610bd4565b60405180910390fd5b565b60026001540361085a576040517f3ee5aeb500000000000000000000000000000000000000000000000000000000815260040160405180910390fd5b6002600181905550565b60018081905550565b60008060009054906101000a900473ffffffffffffffffffffffffffffffffffffffff169050816000806101000a81548173ffffffffffffffffffffffffffffffffffffffff021916908373ffffffffffffffffffffffffffffffffffffffff1602179055508173ffffffffffffffffffffffffffffffffffffffff168173ffffffffffffffffffffffffffffffffffffffff167f8be0079c531659141344cd1fd0a4f28419497f9722a3daafe3b4186f6b6457e060405160405180910390a35050565b600033905090565b600082825260208201905092915050565b7f55736520646f6e61746528290000000000000000000000000000000000000000600082015250565b6000610980600c83610939565b915061098b8261094a565b602082019050919050565b600060208201905081810360008301526109af81610973565b9050919050565b600080fd5b600073ffffffffffffffffffffffffffffffffffffffff82169050919050565b60006109e6826109bb565b9050919050565b6109f6816109db565b8114610a0157600080fd5b50565b600081359050610a13816109ed565b92915050565b600060208284031215610a2f57610a2e6109b6565b5b6000610a3d84828501610a04565b91505092915050565b6000819050919050565b610a5981610a46565b82525050565b6000602082019050610a746000830184610a50565b92915050565b600081519050919050565b600082825260208201905092915050565b6000819050602082019050919050565b610aaf816109db565b82525050565b6000610ac18383610aa6565b60208301905092915050565b6000602082019050919050565b6000610ae582610a7a565b610aef8185610a85565b9350610afa83610a96565b8060005b83811015610b2b578151610b128882610ab5565b9750610b1d83610acd565b925050600181019050610afe565b5085935050505092915050565b60006020820190508181036000830152610b528184610ada565b905092915050565b6000610b65826109bb565b9050919050565b610b7581610b5a565b8114610b8057600080fd5b50565b600081359050610b9281610b6c565b92915050565b600060208284031215610bae57610bad6109b6565b5b6000610bbc84828501610b83565b91505092915050565b610bce816109db565b82525050565b6000602082019050610be96000830184610bc5565b92915050565b7f496e76616c696420726563697069656e74000000000000000000000000000000600082015250565b6000610c25601183610939565b9150610c3082610bef565b602082019050919050565b60006020820190508181036000830152610c5481610c18565b9050919050565b7f4e6f2066756e6473000000000000000000000000000000000000000000000000600082015250565b6000610c91600883610939565b9150610c9c82610c5b565b602082019050919050565b60006020820190508181036000830152610cc081610c84565b9050919050565b600081905092915050565b50565b6000610ce2600083610cc7565b9150610ced82610cd2565b600082019050919050565b6000610d0382610cd5565b9150819050919050565b7f5769746864726177206661696c65640000000000000000000000000000000000600082015250565b6000610d43600f83610939565b9150610d4e82610d0d565b602082019050919050565b60006020820190508181036000830152610d7281610d36565b9050919050565b6000604082019050610d8e6000830185610a50565b610d9b6020830184610a50565b9392505050565b7f446f6e6174696f6e206d757374206265203e2030000000000000000000000000600082015250565b6000610dd8601483610939565b9150610de382610da2565b602082019050919050565b60006020820190508181036000830152610e0781610dcb565b9050919050565b7f4e487b7100000000000000000000000000000000000000000000000000000000600052601160045260246000fd5b6000610e4882610a46565b9150610e5383610a46565b9250828201905080821115610e6b57610e6a610e0e565b5b9291505056fea26469706673582212200581ad01000a868d4bff412a9e3d9798e234ea53cfe0e809143357c863f234a164736f6c63430008140033",
  "linkReferences": {},
  "deployedLinkReferences": {}
}